{
  "_format": "hh-sol-artifact-1",
  "contractName": "Treasury",
  "sourceName": "contracts/Treasury.sol",
  "abi": [
    {
      "inputs": [
        {
          "internalType": "address",
          "name": "_cash",
          "type": "address"
        },
        {
          "internalType": "address",
          "name": "_bond",
          "type": "address"
        },
        {
          "internalType": "address",
          "name": "_share",
          "type": "address"
        },
        {
          "internalType": "address",
          "name": "_cashOracle",
          "type": "address"
        },
        {
          "internalType": "address",
          "name": "_boardroom",
          "type": "address"
        },
        {
          "internalType": "uint256",
          "name": "_startTime",
          "type": "uint256"
        }
      ],
      "stateMutability": "nonpayable",
      "type": "constructor"
    },
    {
      "anonymous": false,
      "inputs": [
        {
          "indexed": false,
          "internalType": "uint256",
          "name": "timestamp",
          "type": "uint256"
        },
        {
          "indexed": false,
          "internalType": "uint256",
          "name": "seigniorage",
          "type": "uint256"
        }
      ],
      "name": "BoardroomFunded",
      "type": "event"
    },
    {
      "anonymous": false,
      "inputs": [
        {
          "indexed": true,
          "internalType": "address",
          "name": "from",
          "type": "address"
        },
        {
          "indexed": false,
          "internalType": "uint256",
          "name": "amount",
          "type": "uint256"
        }
      ],
      "name": "BoughtBonds",
      "type": "event"
    },
    {
      "anonymous": false,
      "inputs": [
        {
          "indexed": true,
          "internalType": "address",
          "name": "target",
          "type": "address"
        }
      ],
      "name": "Migration",
      "type": "event"
    },
    {
      "anonymous": false,
      "inputs": [
        {
          "indexed": true,
          "internalType": "address",
          "name": "previousOperator",
          "type": "address"
        },
        {
          "indexed": true,
          "internalType": "address",
          "name": "newOperator",
          "type": "address"
        }
      ],
      "name": "OperatorTransferred",
      "type": "event"
    },
    {
      "anonymous": false,
      "inputs": [
        {
          "indexed": true,
          "internalType": "address",
          "name": "previousOwner",
          "type": "address"
        },
        {
          "indexed": true,
          "internalType": "address",
          "name": "newOwner",
          "type": "address"
        }
      ],
      "name": "OwnershipTransferred",
      "type": "event"
    },
    {
      "anonymous": false,
      "inputs": [
        {
          "indexed": true,
          "internalType": "address",
          "name": "from",
          "type": "address"
        },
        {
          "indexed": false,
          "internalType": "uint256",
          "name": "amount",
          "type": "uint256"
        }
      ],
      "name": "RedeemedBonds",
      "type": "event"
    },
    {
      "anonymous": false,
      "inputs": [
        {
          "indexed": false,
          "internalType": "uint256",
          "name": "timestamp",
          "type": "uint256"
        },
        {
          "indexed": false,
          "internalType": "uint256",
          "name": "seigniorage",
          "type": "uint256"
        }
      ],
      "name": "TreasuryFunded",
      "type": "event"
    },
    {
      "inputs": [],
      "name": "allocateSeigniorage",
      "outputs": [],
      "stateMutability": "nonpayable",
      "type": "function"
    },
    {
      "inputs": [],
      "name": "allocationDelay",
      "outputs": [
        {
          "internalType": "uint256",
          "name": "",
          "type": "uint256"
        }
      ],
      "stateMutability": "view",
      "type": "function"
    },
    {
      "inputs": [
        {
          "internalType": "uint256",
          "name": "amount",
          "type": "uint256"
        },
        {
          "internalType": "uint256",
          "name": "targetPrice",
          "type": "uint256"
        }
      ],
      "name": "buyBonds",
      "outputs": [],
      "stateMutability": "nonpayable",
      "type": "function"
    },
    {
      "inputs": [],
      "name": "cashPriceCeiling",
      "outputs": [
        {
          "internalType": "uint256",
          "name": "",
          "type": "uint256"
        }
      ],
      "stateMutability": "view",
      "type": "function"
    },
    {
      "inputs": [],
      "name": "cashPriceOne",
      "outputs": [
        {
          "internalType": "uint256",
          "name": "",
          "type": "uint256"
        }
      ],
      "stateMutability": "view",
      "type": "function"
    },
    {
      "inputs": [],
      "name": "getCashPrice",
      "outputs": [
        {
          "internalType": "uint256",
          "name": "cashPrice",
          "type": "uint256"
        }
      ],
      "stateMutability": "view",
      "type": "function"
    },
    {
      "inputs": [],
      "name": "getLastAllocated",
      "outputs": [
        {
          "internalType": "uint256",
          "name": "",
          "type": "uint256"
        }
      ],
      "stateMutability": "view",
      "type": "function"
    },
    {
      "inputs": [],
      "name": "getReserve",
      "outputs": [
        {
          "internalType": "uint256",
          "name": "",
          "type": "uint256"
        }
      ],
      "stateMutability": "view",
      "type": "function"
    },
    {
      "inputs": [],
      "name": "isOperator",
      "outputs": [
        {
          "internalType": "bool",
          "name": "",
          "type": "bool"
        }
      ],
      "stateMutability": "view",
      "type": "function"
    },
    {
      "inputs": [
        {
          "internalType": "address",
          "name": "target",
          "type": "address"
        }
      ],
      "name": "migrate",
      "outputs": [],
      "stateMutability": "nonpayable",
      "type": "function"
    },
    {
      "inputs": [],
      "name": "operator",
      "outputs": [
        {
          "internalType": "address",
          "name": "",
          "type": "address"
        }
      ],
      "stateMutability": "view",
      "type": "function"
    },
    {
      "inputs": [],
      "name": "owner",
      "outputs": [
        {
          "internalType": "address",
          "name": "",
          "type": "address"
        }
      ],
      "stateMutability": "view",
      "type": "function"
    },
    {
      "inputs": [
        {
          "internalType": "uint256",
          "name": "amount",
          "type": "uint256"
        },
        {
          "internalType": "uint256",
          "name": "targetPrice",
          "type": "uint256"
        }
      ],
      "name": "redeemBonds",
      "outputs": [],
      "stateMutability": "nonpayable",
      "type": "function"
    },
    {
      "inputs": [],
      "name": "renounceOwnership",
      "outputs": [],
      "stateMutability": "nonpayable",
      "type": "function"
    },
    {
      "inputs": [],
      "name": "startTime",
      "outputs": [
        {
          "internalType": "uint256",
          "name": "",
          "type": "uint256"
        }
      ],
      "stateMutability": "view",
      "type": "function"
    },
    {
      "inputs": [
        {
          "internalType": "address",
          "name": "newOperator_",
          "type": "address"
        }
      ],
      "name": "transferOperator",
      "outputs": [],
      "stateMutability": "nonpayable",
      "type": "function"
    },
    {
      "inputs": [
        {
          "internalType": "address",
          "name": "newOwner",
          "type": "address"
        }
      ],
      "name": "transferOwnership",
      "outputs": [],
      "stateMutability": "nonpayable",
      "type": "function"
    }
  ],
  "bytecode": "0x60806040526007805460ff60a01b1916905560006008553480156200002357600080fd5b50604051620026aa380380620026aa833981810160405260c08110156200004957600080fd5b508051602082015160408301516060840151608085015160a090950151939492939192909160006200007a620001f5565b600180546001600160a01b0319166001600160a01b038316908117909155604051919250906000907f8be0079c531659141344cd1fd0a4f28419497f9722a3daafe3b4186f6b6457e0908290a350620000d2620001f5565b600280546001600160a01b0319166001600160a01b0392831617908190556040519116906000907f74da04524d50c64947f5dd5381ef1a4dca5cba8ed1d816243f9e48aa0b5617ed908290a3600380546001600160a01b03199081166001600160a01b0389811691909117909255600480548216888416179055600580548216878416179055600780548216868416179055600680549091169184169190911790556009819055670de0b6b3a7640000600b819055620001bd90606490620001a990606990620001f9602090811b6200114617901c565b6200026060201b620011a81790919060201c565b600a81905550620001e1600b546103e8620001f960201b620011461790919060201c565b600c55505042600d55506200035192505050565b3390565b6000826200020a575060006200025a565b828202828482816200021857fe5b0414620002575760405162461bcd60e51b8152600401808060200182810382526021815260200180620026896021913960400191505060405180910390fd5b90505b92915050565b60006200025783836040518060400160405280601a81526020017f536166654d6174683a206469766973696f6e206279207a65726f000000000000815250620002aa60201b60201c565b600081836200033a5760405162461bcd60e51b81526004018080602001828103825283818151815260200191508051906020019080838360005b83811015620002fe578181015183820152602001620002e4565b50505050905090810190601f1680156200032c5780820380516001836020036101000a031916815260200191505b509250505060405180910390fd5b5060008385816200034757fe5b0495945050505050565b61232880620003616000396000f3fe608060405234801561001057600080fd5b506004361061010b5760003560e01c806359bf5d39116100a25780638da5cb5b116100715780638da5cb5b14610208578063a9cfc46e14610210578063ce5494bb14610218578063f2fde38b1461023e578063ffdb522d146102645761010b565b806359bf5d39146101e85780635b756179146101f0578063715018a6146101f857806378e97925146102005761010b565b80634456eda2116100de5780634456eda21461017d578063544d84c01461019957806354f04a11146101a1578063570ca735146101c45761010b565b8063118ebbf91461011057806316ec08941461013557806323ced1351461014f57806329605e7714610157575b600080fd5b6101336004803603604081101561012657600080fd5b508035906020013561026c565b005b61013d6104f2565b60408051918252519081900360200190f35b61013d6105ba565b6101336004803603602081101561016d57600080fd5b50356001600160a01b03166105c0565b610185610636565b604080519115158252519081900360200190f35b61013d61065c565b610133600480360360408110156101b757600080fd5b5080359060200135610663565b6101cc610855565b604080516001600160a01b039092168252519081900360200190f35b61013d610864565b61013361086a565b610133610918565b61013d6109cc565b6101cc6109d2565b61013d6109e1565b6101336004803603602081101561022e57600080fd5b50356001600160a01b03166109e7565b6101336004803603602081101561025457600080fd5b50356001600160a01b0316611035565b61013d611140565b600082116102ab5760405162461bcd60e51b815260040180806020018281038252602e815260200180611fba602e913960400191505060405180910390fd5b60006102b56111ea565b905081811461030b576040805162461bcd60e51b815260206004820152601a60248201527f54726561737572793a2063617368207072696365206d6f766564000000000000604482015290519081900360640190fd5b61031481611292565b5050600a5481116103565760405162461bcd60e51b815260040180806020018281038252603e8152602001806120d7603e913960400191505060405180910390fd5b600354604080516370a0823160e01b815230600482015290516000926001600160a01b0316916370a08231916024808301926020929190829003018186803b1580156103a157600080fd5b505afa1580156103b5573d6000803e3d6000fd5b505050506040513d60208110156103cb57600080fd5b505190508381101561040e5760405162461bcd60e51b815260040180806020018281038252602581526020018061205b6025913960400191505060405180910390fd5b836008541061042c57600854610424908561198b565b600855610432565b60006008555b600480546040805163079cc67960e41b8152339381019390935260248301879052516001600160a01b03909116916379cc679091604480830192600092919082900301818387803b15801561048657600080fd5b505af115801561049a573d6000803e3d6000fd5b50506003546104b692506001600160a01b0316905033866119cd565b60408051858152905133917f9c3478f12dce08d85673d802af16ed5b9ebab8420ffd7b145d65d3157084b2ce919081900360200190a250505050565b60075460035460408051633ddac95360e01b81526001600160a01b039283166004820152670de0b6b3a7640000602482015290516000939290921691633ddac95391604480820192602092909190829003018186803b15801561055457600080fd5b505afa92505050801561057957506040513d602081101561057457600080fd5b505160015b6105b45760405162461bcd60e51b81526004018080602001828103825260368152602001806120a16036913960400191505060405180910390fd5b90505b90565b600a5481565b6105c8611a24565b6001546001600160a01b0390811691161461062a576040805162461bcd60e51b815260206004820181905260248201527f4f776e61626c653a2063616c6c6572206973206e6f7420746865206f776e6572604482015290519081900360640190fd5b61063381611a28565b50565b6002546000906001600160a01b031661064d611a24565b6001600160a01b031614905090565b6201518081565b600082116106a25760405162461bcd60e51b81526004018080602001828103825260308152602001806121806030913960400191505060405180910390fd5b60006106ac6111ea565b9050818114610702576040805162461bcd60e51b815260206004820152601a60248201527f54726561737572793a2063617368207072696365206d6f766564000000000000604482015290519081900360640190fd5b61070b81611292565b50506003546040805163079cc67960e41b815233600482015260248101869052905183926001600160a01b0316916379cc679091604480830192600092919082900301818387803b15801561075f57600080fd5b505af1158015610773573d6000803e3d6000fd5b50506004546001600160a01b031691506340c10f199050336107a7846107a189670de0b6b3a7640000611146565b906111a8565b6040518363ffffffff1660e01b815260040180836001600160a01b0316815260200182815260200192505050602060405180830381600087803b1580156107ed57600080fd5b505af1158015610801573d6000803e3d6000fd5b505050506040513d602081101561081757600080fd5b505060408051858152905133917fdbf5270c3cf4729fec4fdac76fda864aa4f3d14d657ad21772ac28f627141ed9919081900360200190a250505050565b6002546001600160a01b031690565b60085490565b60006108746111ea565b90506000606061088383611292565b915091508181906109125760405162461bcd60e51b81526004018080602001828103825283818151815260200191508051906020019080838360005b838110156108d75781810151838201526020016108bf565b50505050905090810190601f1680156109045780820380516001836020036101000a031916815260200191505b509250505060405180910390fd5b50505050565b610920611a24565b6001546001600160a01b03908116911614610982576040805162461bcd60e51b815260206004820181905260248201527f4f776e61626c653a2063616c6c6572206973206e6f7420746865206f776e6572604482015290519081900360640190fd5b6001546040516000916001600160a01b0316907f8be0079c531659141344cd1fd0a4f28419497f9722a3daafe3b4186f6b6457e0908390a3600180546001600160a01b0319169055565b60095481565b6001546001600160a01b031690565b600b5481565b6002546001600160a01b03163314610a305760405162461bcd60e51b81526004018080602001828103825260248152602001806121b06024913960400191505060405180910390fd5b600754600160a01b900460ff1615610a795760405162461bcd60e51b8152600401808060200182810382526029815260200180611f916029913960400191505060405180910390fd5b600354604080516329605e7760e01b81526001600160a01b038481166004830152915191909216916329605e7791602480830192600092919082900301818387803b158015610ac757600080fd5b505af1158015610adb573d6000803e3d6000fd5b50506003546040805163f2fde38b60e01b81526001600160a01b038681166004830152915191909216935063f2fde38b9250602480830192600092919082900301818387803b158015610b2d57600080fd5b505af1158015610b41573d6000803e3d6000fd5b5050600354604080516370a0823160e01b815230600482015290516001600160a01b03909216935063a9059cbb9250849184916370a08231916024808301926020929190829003018186803b158015610b9957600080fd5b505afa158015610bad573d6000803e3d6000fd5b505050506040513d6020811015610bc357600080fd5b5051604080516001600160e01b031960e086901b1681526001600160a01b03909316600484015260248301919091525160448083019260209291908290030181600087803b158015610c1457600080fd5b505af1158015610c28573d6000803e3d6000fd5b505050506040513d6020811015610c3e57600080fd5b505060048054604080516329605e7760e01b81526001600160a01b0385811694820194909452905192909116916329605e779160248082019260009290919082900301818387803b158015610c9257600080fd5b505af1158015610ca6573d6000803e3d6000fd5b50505050600460009054906101000a90046001600160a01b03166001600160a01b031663f2fde38b826040518263ffffffff1660e01b815260040180826001600160a01b03168152602001915050600060405180830381600087803b158015610d0e57600080fd5b505af1158015610d22573d6000803e3d6000fd5b505060048054604080516370a0823160e01b81523093810193909352516001600160a01b03909116935063a9059cbb9250849184916370a0823191602480820192602092909190829003018186803b158015610d7d57600080fd5b505afa158015610d91573d6000803e3d6000fd5b505050506040513d6020811015610da757600080fd5b5051604080516001600160e01b031960e086901b1681526001600160a01b03909316600484015260248301919091525160448083019260209291908290030181600087803b158015610df857600080fd5b505af1158015610e0c573d6000803e3d6000fd5b505050506040513d6020811015610e2257600080fd5b5050600554604080516329605e7760e01b81526001600160a01b038481166004830152915191909216916329605e7791602480830192600092919082900301818387803b158015610e7257600080fd5b505af1158015610e86573d6000803e3d6000fd5b50506005546040805163f2fde38b60e01b81526001600160a01b038681166004830152915191909216935063f2fde38b9250602480830192600092919082900301818387803b158015610ed857600080fd5b505af1158015610eec573d6000803e3d6000fd5b5050600554604080516370a0823160e01b815230600482015290516001600160a01b03909216935063a9059cbb9250849184916370a08231916024808301926020929190829003018186803b158015610f4457600080fd5b505afa158015610f58573d6000803e3d6000fd5b505050506040513d6020811015610f6e57600080fd5b5051604080516001600160e01b031960e086901b1681526001600160a01b03909316600484015260248301919091525160448083019260209291908290030181600087803b158015610fbf57600080fd5b505af1158015610fd3573d6000803e3d6000fd5b505050506040513d6020811015610fe957600080fd5b50506007805460ff60a01b1916600160a01b1790556040516001600160a01b038216907f0caca70b66aed56b0630989a049110023c5a3f37e0ea4b6ce96fc747663f3ebc90600090a250565b61103d611a24565b6001546001600160a01b0390811691161461109f576040805162461bcd60e51b815260206004820181905260248201527f4f776e61626c653a2063616c6c6572206973206e6f7420746865206f776e6572604482015290519081900360640190fd5b6001600160a01b0381166110e45760405162461bcd60e51b8152600401808060200182810382526026815260200180611f6b6026913960400191505060405180910390fd5b6001546040516001600160a01b038084169216907f8be0079c531659141344cd1fd0a4f28419497f9722a3daafe3b4186f6b6457e090600090a3600180546001600160a01b0319166001600160a01b0392909216919091179055565b600d5490565b600082611155575060006111a2565b8282028284828161116257fe5b041461119f5760405162461bcd60e51b81526004018080602001828103825260218152602001806120806021913960400191505060405180910390fd5b90505b92915050565b600061119f83836040518060400160405280601a81526020017f536166654d6174683a206469766973696f6e206279207a65726f000000000000815250611ac5565b60006111f46104f2565b9050600760009054906101000a90046001600160a01b03166001600160a01b031663a2e620456040518163ffffffff1660e01b8152600401600060405180830381600087803b15801561124657600080fd5b505af1925050508015611257575060015b6105b75760405162461bcd60e51b81526004018080602001828103825260268152602001806121156026913960400191505060405180910390fd5b6000606061129e611b2a565b156112da5760405162461bcd60e51b81526004018080602001828103825260268152602001806121fe6026913960400191505060405180910390fd5b6112e2611b49565b1561131e5760405162461bcd60e51b81526004018080602001828103825260268152602001806121fe6026913960400191505060405180910390fd5b6003546040805163570ca73560e01b8152905130926001600160a01b03169163570ca735916004808301926020929190829003018186803b15801561136257600080fd5b505afa158015611376573d6000803e3d6000fd5b505050506040513d602081101561138c57600080fd5b50516001600160a01b0316146113d35760405162461bcd60e51b8152600401808060200182810382526046815260200180611fe86046913960600191505060405180910390fd5b600480546040805163570ca73560e01b8152905130936001600160a01b039093169263570ca73592808201926020929091829003018186803b15801561141857600080fd5b505afa15801561142c573d6000803e3d6000fd5b505050506040513d602081101561144257600080fd5b50516001600160a01b0316146114895760405162461bcd60e51b815260040180806020018281038252604681526020018061225a6046913960600191505060405180910390fd5b6006546040805163570ca73560e01b8152905130926001600160a01b03169163570ca735916004808301926020929190829003018186803b1580156114cd57600080fd5b505afa1580156114e1573d6000803e3d6000fd5b505050506040513d60208110156114f757600080fd5b50516001600160a01b03161461153e5760405162461bcd60e51b815260040180806020018281038252604581526020018061213b6045913960600191505060405180910390fd5b600754600160a01b900460ff16156115875760405162461bcd60e51b8152600401808060200182810382526029815260200180611f916029913960400191505060405180910390fd5b620151806115a0600d544261198b90919063ffffffff16565b10156115ca5760006040518060600160405280602281526020016122d1602291399150915061194b565b60095442101561161257505060408051808201909152601981527f54726561737572793a206e6f7420737461727465642079657400000000000000602082015260009061194b565b600a54831161163f5760006040518060600160405280603181526020016122a0603191399150915061194b565b60006116c7600854600360009054906101000a90046001600160a01b03166001600160a01b03166318160ddd6040518163ffffffff1660e01b815260040160206040518083038186803b15801561169557600080fd5b505afa1580156116a9573d6000803e3d6000fd5b505050506040513d60208110156116bf57600080fd5b50519061198b565b905060006116e0600b548661198b90919063ffffffff16565b905060006116fa670de0b6b3a76400006107a18585611146565b9050600c54600854111561184a57600354604080516340c10f1960e01b81523060048201526024810184905290516001600160a01b03909216916340c10f19916044808201926020929091908290030181600087803b15801561175c57600080fd5b505af1158015611770573d6000803e3d6000fd5b505050506040513d602081101561178657600080fd5b50506006546003546117a5916001600160a01b03918216911683611b68565b600654604080516397ffe1d760e01b81526004810184905290516001600160a01b03909216916397ffe1d79160248082019260009290919082900301818387803b1580156117f257600080fd5b505af1158015611806573d6000803e3d6000fd5b5050604080514281526020810185905281517f03ca7276ab7799bf73fb79d27ff0610cd7049574f2508ef8445162833d439aea9450908190039091019150a1611916565b6008546118579082611c7b565b600855600354604080516340c10f1960e01b81523060048201526024810184905290516001600160a01b03909216916340c10f19916044808201926020929091908290030181600087803b1580156118ae57600080fd5b505af11580156118c2573d6000803e3d6000fd5b505050506040513d60208110156118d857600080fd5b5050604080514281526020810183905281517ff705142bf09f04297640495ddf7c59b7fd6f51894c5aea9602d631cf05f0efc2929181900390910190a15b505042600d55505060408051808201909152601181527054726561737572793a207375636365737360781b6020820152600191505b436000908152602081815260408083203284529091528082208054600160ff19918216811790925533845291909220805490911690911790559092909150565b600061119f83836040518060400160405280601e81526020017f536166654d6174683a207375627472616374696f6e206f766572666c6f770000815250611cd5565b604080516001600160a01b038416602482015260448082018490528251808303909101815260649091019091526020810180516001600160e01b031663a9059cbb60e01b179052611a1f908490611d2f565b505050565b3390565b6001600160a01b038116611a6d5760405162461bcd60e51b815260040180806020018281038252602d81526020018061202e602d913960400191505060405180910390fd5b6040516001600160a01b038216906000907f74da04524d50c64947f5dd5381ef1a4dca5cba8ed1d816243f9e48aa0b5617ed908290a3600280546001600160a01b0319166001600160a01b0392909216919091179055565b60008183611b145760405162461bcd60e51b81526020600482018181528351602484015283519092839260449091019190850190808383600083156108d75781810151838201526020016108bf565b506000838581611b2057fe5b0495945050505050565b4360009081526020818152604080832032845290915290205460ff1690565b4360009081526020818152604080832033845290915290205460ff1690565b801580611bee575060408051636eb1769f60e11b81523060048201526001600160a01b03848116602483015291519185169163dd62ed3e91604480820192602092909190829003018186803b158015611bc057600080fd5b505afa158015611bd4573d6000803e3d6000fd5b505050506040513d6020811015611bea57600080fd5b5051155b611c295760405162461bcd60e51b81526004018080602001828103825260368152602001806122246036913960400191505060405180910390fd5b604080516001600160a01b038416602482015260448082018490528251808303909101815260649091019091526020810180516001600160e01b031663095ea7b360e01b179052611a1f908490611d2f565b60008282018381101561119f576040805162461bcd60e51b815260206004820152601b60248201527f536166654d6174683a206164646974696f6e206f766572666c6f770000000000604482015290519081900360640190fd5b60008184841115611d275760405162461bcd60e51b81526020600482018181528351602484015283519092839260449091019190850190808383600083156108d75781810151838201526020016108bf565b505050900390565b6060611d84826040518060400160405280602081526020017f5361666545524332303a206c6f772d6c6576656c2063616c6c206661696c6564815250856001600160a01b0316611de09092919063ffffffff16565b805190915015611a1f57808060200190516020811015611da357600080fd5b5051611a1f5760405162461bcd60e51b815260040180806020018281038252602a8152602001806121d4602a913960400191505060405180910390fd5b6060611def8484600085611df7565b949350505050565b6060611e0285611f64565b611e53576040805162461bcd60e51b815260206004820152601d60248201527f416464726573733a2063616c6c20746f206e6f6e2d636f6e7472616374000000604482015290519081900360640190fd5b60006060866001600160a01b031685876040518082805190602001908083835b60208310611e925780518252601f199092019160209182019101611e73565b6001836020036101000a03801982511681845116808217855250505050505090500191505060006040518083038185875af1925050503d8060008114611ef4576040519150601f19603f3d011682016040523d82523d6000602084013e611ef9565b606091505b50915091508115611f0d579150611def9050565b805115611f1d5780518082602001fd5b60405162461bcd60e51b81526020600482018181528651602484015286518793919283926044019190850190808383600083156108d75781810151838201526020016108bf565b3b15159056fe4f776e61626c653a206e6577206f776e657220697320746865207a65726f206164647265737354726561737572793a207468697320636f6e747261637420686173206265656e206d6967726174656454726561737572793a2063616e6e6f742072656465656d20626f6e64732077697468207a65726f20616d6f756e7454726561737572793a207468697320636f6e7472616374206973206e6f7420746865206f70657261746f72206f6620746865206261736973206361736820636f6e74726163746f70657261746f723a207a65726f206164647265737320676976656e20666f72206e6577206f70657261746f7254726561737572793a20747265617375727920686173206e6f206d6f726520627564676574536166654d6174683a206d756c7469706c69636174696f6e206f766572666c6f7754726561737572793a206661696c656420746f20636f6e73756c7420636173682070726963652066726f6d20746865206f7261636c6554726561737572793a20626f6e6420726564656d7074696f6e206661696c65643b20626173697320636173682072656d61696e732064657065676765642e54726561737572793a206661696c656420746f207570646174652063617368206f7261636c6554726561737572793a207468697320636f6e7472616374206973206e6f7420746865206f70657261746f72206f662074686520626f617264726f6f6d20636f6e747261637454726561737572793a2063616e6e6f7420707572636861736520626f6e64732077697468207a65726f20616d6f756e746f70657261746f723a2063616c6c6572206973206e6f7420746865206f70657261746f725361666545524332303a204552433230206f7065726174696f6e20646964206e6f742073756363656564436f6e747261637447756172643a206f6e6520626c6f636b2c206f6e652066756e6374696f6e5361666545524332303a20617070726f76652066726f6d206e6f6e2d7a65726f20746f206e6f6e2d7a65726f20616c6c6f77616e636554726561737572793a207468697320636f6e7472616374206973206e6f7420746865206f70657261746f72206f662074686520626173697320626f6e6420636f6e747261637454726561737572793a207468657265206973206e6f20736569676e696f7261676520746f20626520616c6c6f636174656454726561737572793a20612064617920686173206e6f742070617373656420796574a26469706673582212208a103f551a937ef8dcd7f61cce4589a65f54637a5b18e6abdae820073c0799d064736f6c634300060c0033536166654d6174683a206d756c7469706c69636174696f6e206f766572666c6f77",
  "linkReferences": {},
  "deployedLinkReferences": {}
}