{
  "_format": "hh-sol-artifact-1",
  "contractName": "Boardroom",
  "sourceName": "contracts/Boardroom.sol",
  "abi": [
    {
      "inputs": [
        {
          "internalType": "contract IERC20",
          "name": "_cash",
          "type": "address"
        },
        {
          "internalType": "contract IERC20",
          "name": "_share",
          "type": "address"
        }
      ],
      "stateMutability": "nonpayable",
      "type": "constructor"
    },
    {
      "anonymous": false,
      "inputs": [
        {
          "indexed": true,
          "internalType": "address",
          "name": "previousOperator",
          "type": "address"
        },
        {
          "indexed": true,
          "internalType": "address",
          "name": "newOperator",
          "type": "address"
        }
      ],
      "name": "OperatorTransferred",
      "type": "event"
    },
    {
      "anonymous": false,
      "inputs": [
        {
          "indexed": true,
          "internalType": "address",
          "name": "previousOwner",
          "type": "address"
        },
        {
          "indexed": true,
          "internalType": "address",
          "name": "newOwner",
          "type": "address"
        }
      ],
      "name": "OwnershipTransferred",
      "type": "event"
    },
    {
      "anonymous": false,
      "inputs": [
        {
          "indexed": true,
          "internalType": "address",
          "name": "user",
          "type": "address"
        },
        {
          "indexed": false,
          "internalType": "uint256",
          "name": "reward",
          "type": "uint256"
        }
      ],
      "name": "RewardAdded",
      "type": "event"
    },
    {
      "anonymous": false,
      "inputs": [
        {
          "indexed": true,
          "internalType": "address",
          "name": "user",
          "type": "address"
        },
        {
          "indexed": false,
          "internalType": "uint256",
          "name": "reward",
          "type": "uint256"
        }
      ],
      "name": "RewardPaid",
      "type": "event"
    },
    {
      "anonymous": false,
      "inputs": [
        {
          "indexed": true,
          "internalType": "address",
          "name": "user",
          "type": "address"
        },
        {
          "indexed": false,
          "internalType": "uint256",
          "name": "amount",
          "type": "uint256"
        }
      ],
      "name": "Staked",
      "type": "event"
    },
    {
      "anonymous": false,
      "inputs": [
        {
          "indexed": true,
          "internalType": "address",
          "name": "user",
          "type": "address"
        },
        {
          "indexed": false,
          "internalType": "uint256",
          "name": "amount",
          "type": "uint256"
        }
      ],
      "name": "Withdrawn",
      "type": "event"
    },
    {
      "inputs": [
        {
          "internalType": "uint256",
          "name": "amount",
          "type": "uint256"
        }
      ],
      "name": "allocateSeigniorage",
      "outputs": [],
      "stateMutability": "nonpayable",
      "type": "function"
    },
    {
      "inputs": [],
      "name": "claimDividends",
      "outputs": [],
      "stateMutability": "nonpayable",
      "type": "function"
    },
    {
      "inputs": [],
      "name": "exit",
      "outputs": [],
      "stateMutability": "nonpayable",
      "type": "function"
    },
    {
      "inputs": [
        {
          "internalType": "address",
          "name": "director",
          "type": "address"
        }
      ],
      "name": "getAppointmentTimeOf",
      "outputs": [
        {
          "internalType": "uint256",
          "name": "",
          "type": "uint256"
        }
      ],
      "stateMutability": "view",
      "type": "function"
    },
    {
      "inputs": [
        {
          "internalType": "address",
          "name": "director",
          "type": "address"
        }
      ],
      "name": "getCashEarningsOf",
      "outputs": [
        {
          "internalType": "uint256",
          "name": "",
          "type": "uint256"
        }
      ],
      "stateMutability": "view",
      "type": "function"
    },
    {
      "inputs": [
        {
          "internalType": "address",
          "name": "director",
          "type": "address"
        }
      ],
      "name": "getShareOf",
      "outputs": [
        {
          "internalType": "uint256",
          "name": "",
          "type": "uint256"
        }
      ],
      "stateMutability": "view",
      "type": "function"
    },
    {
      "inputs": [],
      "name": "isOperator",
      "outputs": [
        {
          "internalType": "bool",
          "name": "",
          "type": "bool"
        }
      ],
      "stateMutability": "view",
      "type": "function"
    },
    {
      "inputs": [],
      "name": "operator",
      "outputs": [
        {
          "internalType": "address",
          "name": "",
          "type": "address"
        }
      ],
      "stateMutability": "view",
      "type": "function"
    },
    {
      "inputs": [],
      "name": "owner",
      "outputs": [
        {
          "internalType": "address",
          "name": "",
          "type": "address"
        }
      ],
      "stateMutability": "view",
      "type": "function"
    },
    {
      "inputs": [],
      "name": "renounceOwnership",
      "outputs": [],
      "stateMutability": "nonpayable",
      "type": "function"
    },
    {
      "inputs": [
        {
          "internalType": "uint256",
          "name": "amount",
          "type": "uint256"
        }
      ],
      "name": "stake",
      "outputs": [],
      "stateMutability": "nonpayable",
      "type": "function"
    },
    {
      "inputs": [],
      "name": "totalShare",
      "outputs": [
        {
          "internalType": "uint256",
          "name": "",
          "type": "uint256"
        }
      ],
      "stateMutability": "view",
      "type": "function"
    },
    {
      "inputs": [
        {
          "internalType": "address",
          "name": "newOperator_",
          "type": "address"
        }
      ],
      "name": "transferOperator",
      "outputs": [],
      "stateMutability": "nonpayable",
      "type": "function"
    },
    {
      "inputs": [
        {
          "internalType": "address",
          "name": "newOwner",
          "type": "address"
        }
      ],
      "name": "transferOwnership",
      "outputs": [],
      "stateMutability": "nonpayable",
      "type": "function"
    },
    {
      "inputs": [
        {
          "internalType": "uint256",
          "name": "amount",
          "type": "uint256"
        }
      ],
      "name": "withdraw",
      "outputs": [],
      "stateMutability": "nonpayable",
      "type": "function"
    }
  ],
  "bytecode": "0x608060405234801561001057600080fd5b506040516116cf3803806116cf8339818101604052604081101561003357600080fd5b50805160209091015160006100466101c8565b600180546001600160a01b0319166001600160a01b038316908117909155604051919250906000907f8be0079c531659141344cd1fd0a4f28419497f9722a3daafe3b4186f6b6457e0908290a35061009c6101c8565b600280546001600160a01b0319166001600160a01b0392831617908190556040519116906000907f74da04524d50c64947f5dd5381ef1a4dca5cba8ed1d816243f9e48aa0b5617ed908290a3600380546001600160a01b038085166001600160a01b03199283161790925560048054928416929091169190911790556101206101cc565b50506040805160608101825242815260006020820181815292820181815260068054600181018255925291517ff652222313e28459528d920b65115c16c04f3efc82aaedc97be59f3f377c0d3f60039092029182015591517ff652222313e28459528d920b65115c16c04f3efc82aaedc97be59f3f377c0d40830155517ff652222313e28459528d920b65115c16c04f3efc82aaedc97be59f3f377c0d4190910155506101ed565b3390565b60405180606001604052806000815260200160008152602001600081525090565b6114d3806101fc6000396000f3fe608060405234801561001057600080fd5b50600436106100f55760003560e01c8063715018a611610097578063a694fc3a11610066578063a694fc3a1461021a578063e9fad8ee14610237578063ee4e63871461023f578063f2fde38b14610265576100f5565b8063715018a6146101c75780638da5cb5b146101cf57806397ffe1d7146101d75780639dfa92aa146101f4576100f5565b80634456eda2116100d35780634456eda21461015957806352c15f0414610175578063570ca7351461019b578063668038e0146101bf576100f5565b8063026c4207146100fa57806329605e77146101145780632e1a7d4d1461013c575b600080fd5b61010261028b565b60408051918252519081900360200190f35b61013a6004803603602081101561012a57600080fd5b50356001600160a01b03166102bf565b005b61013a6004803603602081101561015257600080fd5b5035610335565b6101616104e4565b604080519115158252519081900360200190f35b6101026004803603602081101561018b57600080fd5b50356001600160a01b031661050a565b6101a361052c565b604080516001600160a01b039092168252519081900360200190f35b61013a61053b565b61013a610672565b6101a3610726565b61013a600480360360208110156101ed57600080fd5b5035610735565b6101026004803603602081101561020a57600080fd5b50356001600160a01b03166109a1565b61013a6004803603602081101561023057600080fd5b5035610a85565b61013a610bd8565b6101026004803603602081101561025557600080fd5b50356001600160a01b0316610beb565b61013a6004803603602081101561027b57600080fd5b50356001600160a01b0316610c06565b600680546000919061029e906001610d11565b815481106102a857fe5b906000526020600020906003020160020154905090565b6102c7610d5c565b6001546001600160a01b03908116911614610329576040805162461bcd60e51b815260206004820181905260248201527f4f776e61626c653a2063616c6c6572206973206e6f7420746865206f776e6572604482015290519081900360640190fd5b61033281610d60565b50565b336000908152600560205260409020600101546103835760405162461bcd60e51b81526004018080602001828103825260268152602001806113f26026913960400191505060405180910390fd5b600081116103d8576040805162461bcd60e51b815260206004820152601c60248201527f426f617264726f6f6d3a2043616e6e6f74207769746864726177203000000000604482015290519081900360640190fd5b6103e061053b565b60006103eb3361050a565b90508181101561042c5760405162461bcd60e51b81526004018080602001828103825260368152602001806114686036913960400191505060405180910390fd5b6104368183610d11565b336000908152600560205260408120600190810192909255600654909161045d9190610d11565b90506104718361046b61028b565b90610d11565b6006828154811061047e57fe5b60009182526020909120600260039092020101556004546104a9906001600160a01b03163385610dfd565b60408051848152905133917f7084f5476618d8e60b11ef0d7d3f06914655adb8793e28ff7f018d4c76d505d5919081900360200190a2505050565b6002546000906001600160a01b03166104fb610d5c565b6001600160a01b031614905090565b6001600160a01b0381166000908152600560205260409020600101545b919050565b6002546001600160a01b031690565b610543610e54565b1561057f5760405162461bcd60e51b81526004018080602001828103825260268152602001806114426026913960400191505060405180910390fd5b610587610e73565b156105c35760405162461bcd60e51b81526004018080602001828103825260268152602001806114426026913960400191505060405180910390fd5b60006105ce336109a1565b33600090815260056020526040902042905590508015610636576003546105ff906001600160a01b03163383610dfd565b60408051828152905133917fe2403640ba68fed3a2f88b7557551d1993f84b99bb10ff833f0cf8db0c5e0486919081900360200190a25b50436000908152602081815260408083203284529091528082208054600160ff1991821681179092553384529190922080549091169091179055565b61067a610d5c565b6001546001600160a01b039081169116146106dc576040805162461bcd60e51b815260206004820181905260248201527f4f776e61626c653a2063616c6c6572206973206e6f7420746865206f776e6572604482015290519081900360640190fd5b6001546040516000916001600160a01b0316907f8be0079c531659141344cd1fd0a4f28419497f9722a3daafe3b4186f6b6457e0908390a3600180546001600160a01b0319169055565b6001546001600160a01b031690565b61073d610e54565b156107795760405162461bcd60e51b81526004018080602001828103825260268152602001806114426026913960400191505060405180910390fd5b610781610e73565b156107bd5760405162461bcd60e51b81526004018080602001828103825260268152602001806114426026913960400191505060405180910390fd5b6002546001600160a01b031633146108065760405162461bcd60e51b81526004018080602001828103825260248152602001806113ce6024913960400191505060405180910390fd5b6000811161085b576040805162461bcd60e51b815260206004820152601c60248201527f426f617264726f6f6d3a2043616e6e6f7420616c6c6f63617465203000000000604482015290519081900360640190fd5b61086361131e565b604051806060016040528042815260200183815260200161088261028b565b905260068054600181018255600091909152815160039182027ff652222313e28459528d920b65115c16c04f3efc82aaedc97be59f3f377c0d3f81019190915560208301517ff652222313e28459528d920b65115c16c04f3efc82aaedc97be59f3f377c0d4082015560408301517ff652222313e28459528d920b65115c16c04f3efc82aaedc97be59f3f377c0d41909101555490915061092e906001600160a01b0316333085610e92565b60408051838152905133917fac24935fd910bc682b5ccb1a07b718cadf8cf2f6d1404c4f3ddc3662dae40e29919081900360200190a25050436000908152602081815260408083203284529091528082208054600160ff1991821681179092553384529190922080549091169091179055565b600080806109ae8461050a565b116109ba579050610527565b6006545b8015610a7e576109cc61131e565b60066109d9836001610d11565b815481106109e357fe5b906000526020600020906003020160405180606001604052908160008201548152602001600182015481526020016002820154815250509050610a2585610beb565b81511015610a335750610a7e565b6000610a5a8260400151610a54610a498961050a565b602086015190610ef2565b90610f4b565b9050610a668482610f8d565b9350610a7791508290506001610d11565b90506109be565b5092915050565b60008111610ada576040805162461bcd60e51b815260206004820152601960248201527f426f617264726f6f6d3a2043616e6e6f74207374616b65203000000000000000604482015290519081900360640190fd5b610ae261053b565b610aea61133f565b503360009081526005602090815260409182902082518084019093528054835260010154908201819052610b1e9083610f8d565b60208083019182523360009081526005909152604081208351815591516001928301556006549091610b509190610d11565b9050610b6483610b5e61028b565b90610f8d565b60068281548110610b7157fe5b6000918252602090912060026003909202010155600454610b9d906001600160a01b0316333086610e92565b60408051848152905133917f9e71bc8eea02a63969f509818f2dafb9254532904319f9dbda79b67bd34a5f3d919081900360200190a2505050565b610be9610be43361050a565b610335565b565b6001600160a01b031660009081526005602052604090205490565b610c0e610d5c565b6001546001600160a01b03908116911614610c70576040805162461bcd60e51b815260206004820181905260248201527f4f776e61626c653a2063616c6c6572206973206e6f7420746865206f776e6572604482015290519081900360640190fd5b6001600160a01b038116610cb55760405162461bcd60e51b815260040180806020018281038252602681526020018061135a6026913960400191505060405180910390fd5b6001546040516001600160a01b038084169216907f8be0079c531659141344cd1fd0a4f28419497f9722a3daafe3b4186f6b6457e090600090a3600180546001600160a01b0319166001600160a01b0392909216919091179055565b6000610d5383836040518060400160405280601e81526020017f536166654d6174683a207375627472616374696f6e206f766572666c6f770000815250610fe7565b90505b92915050565b3390565b6001600160a01b038116610da55760405162461bcd60e51b815260040180806020018281038252602d815260200180611380602d913960400191505060405180910390fd5b6040516001600160a01b038216906000907f74da04524d50c64947f5dd5381ef1a4dca5cba8ed1d816243f9e48aa0b5617ed908290a3600280546001600160a01b0319166001600160a01b0392909216919091179055565b604080516001600160a01b038416602482015260448082018490528251808303909101815260649091019091526020810180516001600160e01b031663a9059cbb60e01b179052610e4f90849061107e565b505050565b4360009081526020818152604080832032845290915290205460ff1690565b4360009081526020818152604080832033845290915290205460ff1690565b604080516001600160a01b0380861660248301528416604482015260648082018490528251808303909101815260849091019091526020810180516001600160e01b03166323b872dd60e01b179052610eec90859061107e565b50505050565b600082610f0157506000610d56565b82820282848281610f0e57fe5b0414610d535760405162461bcd60e51b81526004018080602001828103825260218152602001806113ad6021913960400191505060405180910390fd5b6000610d5383836040518060400160405280601a81526020017f536166654d6174683a206469766973696f6e206279207a65726f00000000000081525061112f565b600082820183811015610d53576040805162461bcd60e51b815260206004820152601b60248201527f536166654d6174683a206164646974696f6e206f766572666c6f770000000000604482015290519081900360640190fd5b600081848411156110765760405162461bcd60e51b81526004018080602001828103825283818151815260200191508051906020019080838360005b8381101561103b578181015183820152602001611023565b50505050905090810190601f1680156110685780820380516001836020036101000a031916815260200191505b509250505060405180910390fd5b505050900390565b60606110d3826040518060400160405280602081526020017f5361666545524332303a206c6f772d6c6576656c2063616c6c206661696c6564815250856001600160a01b03166111949092919063ffffffff16565b805190915015610e4f578080602001905160208110156110f257600080fd5b5051610e4f5760405162461bcd60e51b815260040180806020018281038252602a815260200180611418602a913960400191505060405180910390fd5b6000818361117e5760405162461bcd60e51b815260206004820181815283516024840152835190928392604490910191908501908083836000831561103b578181015183820152602001611023565b50600083858161118a57fe5b0495945050505050565b60606111a384846000856111ab565b949350505050565b60606111b685611318565b611207576040805162461bcd60e51b815260206004820152601d60248201527f416464726573733a2063616c6c20746f206e6f6e2d636f6e7472616374000000604482015290519081900360640190fd5b60006060866001600160a01b031685876040518082805190602001908083835b602083106112465780518252601f199092019160209182019101611227565b6001836020036101000a03801982511681845116808217855250505050505090500191505060006040518083038185875af1925050503d80600081146112a8576040519150601f19603f3d011682016040523d82523d6000602084013e6112ad565b606091505b509150915081156112c15791506111a39050565b8051156112d15780518082602001fd5b60405162461bcd60e51b815260206004820181815286516024840152865187939192839260440191908501908083836000831561103b578181015183820152602001611023565b3b151590565b60405180606001604052806000815260200160008152602001600081525090565b60405180604001604052806000815260200160008152509056fe4f776e61626c653a206e6577206f776e657220697320746865207a65726f20616464726573736f70657261746f723a207a65726f206164647265737320676976656e20666f72206e6577206f70657261746f72536166654d6174683a206d756c7469706c69636174696f6e206f766572666c6f776f70657261746f723a2063616c6c6572206973206e6f7420746865206f70657261746f72426f617264726f6f6d3a20546865206469726563746f7220646f6573206e6f742065786973745361666545524332303a204552433230206f7065726174696f6e20646964206e6f742073756363656564436f6e747261637447756172643a206f6e6520626c6f636b2c206f6e652066756e6374696f6e426f617264726f6f6d3a20776974686472617720726571756573742067726561746572207468616e207374616b656420616d6f756e74a2646970667358221220eba623a2efa5db76409c9ae625a3bfff3de35146d263b8e341cbcc61f49d815964736f6c634300060c0033",
  "linkReferences": {},
  "deployedLinkReferences": {}
}